:020000040800F2
:10000000F0080020C901000829480008053600084A
:100010002548000829060008555400080000000083
:1000200000000000000000000000000091530008E4
:10003000B9080008000000002D4800084D540008D1
:10004000E3010008E3010008E3010008E301000800
:10005000E3010008E3010008E3010008E3010008F0
:10006000E3010008E3010008E3010008E3010008E0
:10007000E3010008E3010008E3010008E3010008D0
:10008000E3010008E3010008E3010008E3010008C0
:10009000E3010008E3010008E3010008F90A000891
:1000A000E3010008E3010008E3010008E3010008A0
:1000B000E3010008E3010008E3010008E301000890
:1000C000E3010008E3010008E3010008E301000880
:1000D000E3010008E3010008E3010008E301000870
:1000E000E50A0008E3010008E301000800F002F857
:1000F00000F05BF814A696E8000CB244B344DA456D
:1001000001D100F052F8BAE80F000FA696E83000CF
:10011000A5EB040504EB0607AAEB0704A7F101070A
:100120004FEA15154FEA3414A4F10104AC4201D38F
:1001300000F03BF813F0010F18BFFB1A43F0010366
:1001400000F001F8DBE71847546F0000746F0000FF
:10015000103A24BF78C878C1FAD8520724BF30C8F3
:1001600030C144BF04680C60704700007047000055
:100170000023002400250026103A28BF78C1FBD8B0
:10018000520728BF30C148BF0B607047642900F098
:10019000AD80632900F00182732900F006820020FF
:1001A00070471FB51FBD10B510BD00F002FA114613
:1001B000FFF7F7FF05F088FE00F020FA03B4FFF721
:1001C000F2FF03BC00F028FA0948804709480047BD
:1001D000FEE7FEE7FEE7FEE7FEE7FEE7FEE7FEE7F7
:1001E000FEE7FEE704480549054A064B7047000054
:1001F00051540008ED000008F0020020F008002033
:10020000F0040020F00400200FB41CB5074B06AA30
:100210007B4469460090059800F09DF900206946EE
:1002200000F0ACF91CBC5DF814FB00006903000091
:100230002DE9F0410E460446002020622046E16888
:10024000884730B3252805D0D4E901219047206A9A
:10025000401CF2E7E168204600278847050018D0D7
:10026000A5F14100192802D820354FF40067324625
:10027000294620462760FFF789FF40B1012804D0B6
:10028000F61D26F007060836D8E7361DD6E72846BD
:10029000DAE7206ABDE8F08170B50C460546012A10
:1002A00005D02878800600D5EA69002302E0012302
:1002B00005E05B1C934202D2E05C0028F9D1A869FA
:1002C000E618C01AA861286A184428622846AFF3C5
:1002D000008004E0D5E9012114F8010B9047B442F5
:1002E000F8D32846AFF3008070BD00002DE9F0413F
:1002F0000646002410687529314616A510D0AFF3C4
:100300000080002802DA404213A507E031688A071E
:1003100001D512A502E0490704D511A5012401E089
:10032000AFF3008000210A2206F1240709E0B0FBA8
:10033000F2FCB0FBF2F302FB1C003030785418469C
:10034000491C0028F3D123462A463046BDE8F04137
:1003500000F0A3B8000000002D0000002B000000FA
:100360002000000030B505460B462A4613F8014B25
:1003700012F8010B08B1A042F8D01CB1002802D03D
:100380006D1CF1E7284630BD10B5431C02E010F8A3
:10039000011B71B18107FAD14FF0013202C88C1AEA
:1003A0008C4314EAC211F9D0C01A0A0603D0C01E49
:1003B00010BDC01A10BD0A0401D0801E10BD090274
:1003C000FCD0401E10BD4FF0000200B5134694460D
:1003D0009646203922BFA0E80C50A0E80C50B1F19D
:1003E0002001BFF4F7AF090728BFA0E80C5048BFB1
:1003F0000CC05DF804EB890028BF40F8042B08BF4F
:10040000704748BF20F8022B11F0804F18BF00F84A
:10041000012B70474FF0013C50F8042B51F8043B7E
:100420009A4221D1A2EB0C03934313EACC1317D1C8
:1004300050F8042B51F8043B9A4215D1A2EB0C035F
:10044000934313EACC130BD150F8042B51F8043B1F
:100450009A4209D1A2EB0C03934313EACC13DBD0ED
:100460004FF00000704700BFD01A01BAB1FA81F115
:1004700001F0180122FA01F0CB40DBB2C0B2C01A81
:10048000C1F120012CFA01F3D11A914311EAC311F1
:10049000E6D170477047704770472DE9F0470D4629
:1004A00099469246044600F124080168880604D55E
:1004B000E06921F01001216000E00120A84201DD87
:1004C000471B00E00027A1697A1902EB0900081A0E
:1004D000A0612078C00602D42046AFF30080002639
:1004E00008E0D4E901211AF806009047206A401C70
:1004F000761C20624E45F4DB2078C0060AD52046E3
:10050000AFF3008006E0D4E9012130209047206A53
:10051000401C2062381EA7F10107F4DC07E0D4E993
:10052000012118F805009047206A401C2062281E0F
:10053000A5F10105F3DC2046AFF30080207800062A
:1005400002D50220BDE8F0870120FBE701694A1CC3
:1005500002610878704700B58FB0CDE90131002104
:10056000059105497944CDE9031011466846FFF726
:100570005FFE0FB000BD0000E5FFFFFF0A6802F854
:10058000010B0A60704710B5436913B1AFF30080E7
:1005900001E0FFF781FE012010BD127800F1240177
:1005A0000A7000224A700122EDE711684FF0FF3215
:1005B000E9E7754600F02CF8AE460500694653465B
:1005C00020F00700854618B020B5FFF70BFEBDE808
:1005D00020404FF000064FF000074FF000084FF0AA
:1005E000000BAC46ACE8C009ACE8C009ACE8C009F7
:1005F000ACE8C00921F007018D46704710B50446EC
:10060000AFF300802046BDE81040FFF7D7BD0000E3
:10061000004870472000002001491820ABBEFEE7CB
:100620002600020070470000FEE700002DE9F04FB1
:1006300083B00E46044640F60009052004210192CD
:10064000C4F2010900F0DCF80A20802104F0A2FEC7
:100650006EB340F2BC1A013C4FF06408C2F2000ACB
:100660000DF10B070DF10A0514F801BF48461021E2
:10067000002200F0A3FE12208DF80B0050463946F0
:100680002A460123CDF8008001F0A0FF50463946EC
:100690002A4601238DF80BB0CDF8008001F096FFBB
:1006A00048461021012200F089FE013EDCD1484677
:1006B0001021002200F082FE40F2BC160220C2F29D
:1006C00000060DF10B070DF10A048DF80B004FF039
:1006D00064083046394622460123CDF8008001F0F7
:1006E00075FF03208DF80B000DF10B010DF10A02CF
:1006F00030460123CDF8008001F068FF4846102104
:10070000012200F05BFEFF254FF08A0B48461021C6
:10071000002200F053FE30463946224601238DF870
:100720000BB0CDF8008001F051FF00208DF80B00D8
:100730003046394622460123CDF8008001F046FFBD
:100740009DF80AA048461021012200F037FE013D25
:10075000280602D01AF00400D8D048461021002202
:100760004FF0000800F02AFE40F2BC14C420C2F290
:1007700000048DF80B0064250DF10B010DF10A0248
:1007800020460123009501F021FF0DF10B010DF131
:100790000A02204601238DF80B80009501F016FF18
:1007A0009DF80A7048461021012200F007FE019EC4
:1007B000484610210022377000F000FEC2208DF85C
:1007C0000B000DF10B010DF10A02204601230095EB
:1007D00001F0FCFE0DF10B010DF10A022046012390
:1007E0008DF80B80009501F0F1FE9DF80A40484617
:1007F0001021012200F0E2FD747003B0BDE8F08F1B
:100800002DE9F04784B040F60008C4F201088A469A
:1008100006464046102100224FF0000900F0CEFDB0
:10082000802040F2BC1540EA4600C2F200058DF877
:10083000090064240DF1090102AA2846012300944D
:1008400001F0C4FE0DF10B010DF10A02284601234F
:100850008DF80B90009401F0B9FE9DF80A704046A7
:100860001021012200F0AAFD40461021002227EAB3
:100870000A0700F0A3FD7E2000EA46008DF80D0077
:100880000DF10D0103AA28460123009401F09EFEFC
:100890000DF10F010DF10E02284601238DF80F70A6
:1008A000009401F093FE40461021012200F086FDE5
:1008B00004B0BDE8F0870000704700002DE9F04F5C
:1008C00003AF85B0054684B040F268140120A7F15B
:1008D0001101C2F20004C826CDE900102046A12172
:1008E0000F220223029600F015FF04B017F8110C36
:1008F000EB46401BC100ADEBC000A0F10809CD469E
:100900004FF0FF3047E90800182000EBC50684B01F
:100910004FF4FA681FFA81FA2046A12132460223D9
:10092000CDE9009ACDF8088000F0F4FE04B0322042
:1009300000F090FA102000EBC50284B02046A02100
:100940000223CDE9009ACDF8088001F08BF804B0BD
:10095000322000F07FFA84B00820A7F12001CDE911
:1009600000102046A02132460223CDF8088001F075
:1009700079F804B0322000F06DFA17F8110C40F24B
:1009800080010138C2F2000107F8110C887184B0AF
:10099000A7F111000090012001902046A0210F2214
:1009A0000223C826029601F05DF804B0142000F07E
:1009B00051FADD46A7F10C04A546BDE8F08F000012
:1009C00080B584B0102202EBC0020820CDE90010EF
:1009D00040F268104FF0C80CC2F20000A1210223BF
:1009E000CDF808C000F096FEB0FA80F0400904B0DF
:1009F00080BD00002DE9F04385B040F268108946C3
:100A0000C82601270DF11304C2F20000A1210F2214
:100A10000223CDE90047029600F07CFE002842D177
:100A2000142000F017FA9DF8135040F28008681C5B
:100A3000C2F200088DF8130088F8060040F2681032
:100A4000C2F20000A0210F220223CDE90047029646
:100A500001F008F838BB142000F0FCF9102000EB7E
:100A6000C502042408F13D00CDE9000440F26810FD
:100A7000C826C2F20000A0210223029600F0F2FF75
:100A800088B91420ED0000F0E5F940F2681005F196
:100A90001402C2F20000A0210223CDE900940296C4
:100AA00000F0E0FF20B1002005B0BDE8F08300BFFA
:100AB00007A003F0EDF80420322104F0CDFC4FF440
:100AC0007A7000F0C7F9012005B0BDE8F08300BFDF
:100AD000416464206361726420737563636573733A
:100AE0002120000080B505F0B5FF4FF40050BDE8AF
:100AF000804000F041BB000080B5402000F03CFB8E
:100B0000802000F039FB4FF4807000F035FB4FF48B
:100B10000070BDE8804000F02FBB000010B581B030
:100B20000022009290F82420012A03D102210846D5
:100B300001B010BD4B680122062B80F8242033D869
:100B4000D0F800C003EB83035A1F1F23DCF834E006
:100B500003FA02F40B682EEA040403FA02F22243B9
:100B6000CCF83420092B03EB430249D9DCF80CE024
:100B70001E3A0724896894402EEA0404914023F029
:100B800001022143102ACCF80C1043D142F2084153
:100B9000C4F20101A1F10802944543D0816A41F0F9
:100BA00020018162012136E0D0F800C00C2B03EB5C
:100BB000830213D8233A1F23DCF830E003FA02F44F
:100BC0000B682EEA040403FA02F22243CCF8302028
:100BD000092B03EB4302C9D812E000BF413A1F239F
:100BE000DCF82CE003FA02F40B682EEA040403FAA2
:100BF00002F22243CCF82C20092B03EB4302B5D898
:100C0000DCF81030072489689440A34391401943CD
:100C1000CCF810100021002280F82420084601B0F2
:100C200010BD00BF0A681202F4D40A68102B42F407
:100C300000020A60EED140F21C01C2F20001096814
:100C40004DF68362C4F21B32A1FB0212910C01EB40
:100C500081014900009100990029DBD000990139F8
:100C6000009100990029D5D000990139009100998F
:100C70000029CFD000990139009100990029C9D0ED
:100C8000009901390091009900294FF00001E5D148
:100C9000C1E70000002804BF01207047B0B504463A
:100CA000806A28B121688868C0070CD115E000BFB0
:100CB0000020E06284F82400204600F097F82168C4
:100CC0008868C00709D0886820F00100886000F0BB
:100CD0007BFB21688A68D20726D1A06AC0063AD475
:100CE000A06A41F2021290430230A062E069D4E9A6
:100CF000013240EA030C531EB3FA83F35D09134635
:100D0000B2F5807F18BF2B02207D257B01284CEA9D
:100D100045002CD135B3A56A45F02005A562E56AEA
:100D200045F00105E56222E0054602E08868C0075B
:100D3000D3D000F049FB401B21680328F6D3886814
:100D4000C007F3D0A06A40F01000A062E06A40F053
:100D50000100E062A06AA06A40F01000A0620120D9
:100D6000B0BD00BFA56903EB4533A3F5C0534D6883
:100D7000B2F5807F25F4694543EA05034B608B6833
:100D80004FF2FD75CFF6E17503EA050343EA000370
:100D90008B6001D0012A07D122690023CFF6F073BE
:100DA00003EB025201E000BF0022CB6A23F4700380
:100DB0001A43CA62896840F6FE62CFF61F7211407C
:100DC000814207D10020E062A16A012262F30101A1
:100DD000A162B0BDA06A40F0100020F00200A06245
:100DE000E06A40F00100E0620120B0BD80B586B04D
:100DF000014640F60000C4F20100096800F5E05227
:100E000091424FF00001CDE90411CDE9021101D06A
:100E100006B080BD41F21801C4F202010A6842F432
:100E200000720A600A6802F400720192019A0A686C
:100E300042F004020A60096801F00401019101997D
:100E4000012102910321039102A900F0A1F906B04A
:100E500080BD0000B0B5044600F0B6FA054640F289
:100E60001400C2F200000078611C18BF044400BFE7
:100E700000F0AAFA401BA042FAD3B0BD2DE9F04120
:100E800084B0064600F0A0FA40F28007C2F20007E4
:100E9000B969F861411AFB29C0F0D2804FF4707033
:100EA00040F6004400900020C4F2010401900220AA
:100EB000CDE902006946204600F06AF9A4F5806594
:100EC00028464FF40041012200F078FA204608211C
:100ED000002200F073FA20461021002200F06EFA82
:100EE00020462021002200F069FA40F20008402E3E
:100EF000C2F2000840F0A8802046402100F050FADD
:100F000010B1442088F8010028464FF40041002227
:100F100000F054FA20460821012200F04FFA204642
:100F20001021002200F04AFA20462021002200F081
:100F300045FA402E40F09A802046402100F030FAD9
:100F400010B1232088F8010028464FF40041002208
:100F500000F034FA20460821002200F02FFA204643
:100F60001021012200F02AFA20462021002200F060
:100F700025FA402E40F08C802046402100F010FAE7
:100F800010B1302088F8010028464FF400410022BB
:100F900000F014FA20460821002200F00FFA204643
:100FA0001021002200F00AFA20462021012200F040
:100FB00005FA402E40F07E802046402100F0F0F9F6
:100FC00010B12A2088F8010028464FF40041012280
:100FD00000F0F4F920460821012200F0EFF9204644
:100FE0001021012200F0EAF920462021012200F020
:100FF000E5F90020C1F2110001900220029069463B
:10100000204600F0C5F898F80100F9691F38262835
:10101000B96115D820464FF40041012200F0CEF905
:101020002820FFF717FF20464FF40041002200F070
:10103000C5F92820FFF70EFF07F15E0004F068FAFB
:1010400004B0BDE8F08100BFB6F5007F6CD0B6F506
:10105000807F41D0802E7FF457AF2046802100F062
:101060009FF900283FF450AF43204BE7B6F5007FCF
:1010700064D0B6F5807F39D0802E7FF465AF2046EE
:10108000802100F08DF900283FF45EAF392059E748
:10109000B6F5007F5CD0B6F5807F31D0802E7FF42E
:1010A00073AF2046802100F07BF900283FF46CAF3D
:1010B000382067E7B6F5007F54D0B6F5807F29D099
:1010C000802E7FF481AF2046802100F069F900284E
:1010D0003FF47AAF372075E720464FF4807100F077
:1010E0005FF900283FF410AF42200BE720464FF491
:1010F000807100F055F900283FF426AF362021E733
:1011000020464FF4807100F04BF900283FF43CAFCB
:10111000352037E720464FF4807100F041F9002870
:101120003FF452AF34204DE720464FF4007100F0F9
:1011300037F900283FF4E8AE4120E3E620464FF4BB
:10114000007100F02DF900283FF4FEAE3320F9E6DF
:1011500020464FF4007100F023F900283FF414AF4B
:1011600032200FE720464FF4007100F019F90028F3
:101170003FF42AAF312025E740F21441C4F20101C7
:101180000A68024214BF08607047FFF777BE00008C
:101190002DE9F04F82B00E68002E00F0FD8041F284
:1011A0000042C4F20102042340F2004E904208BF04
:1011B00003234FF6FF7CC4F2010E009300240123A9
:1011C000C1F2100C4FF0000A4FF000094BE000BFD5
:1011D00041F20002C4F20102009F904208BF0227C0
:1011E00004F00C030F229A402BEA020207FA03F3E1
:1011F0004FEA9A051A4346F825204E6840F20C45FE
:10120000F202DEF8082054BF22EA080242EA08028D
:10121000C4F20105CEF808202A68B30254BF22EABE
:10122000080242EA08022A60B303DEF8042054BF31
:1012300022EA080242EA0802F303CEF80420DEF8AC
:1012400000204FF0010354BF22EA080242EA0802DC
:10125000CEF800200E680AF1010A36FA0AF204F10B
:10126000040400F0998003FA0AFB16EA0B08F1D097
:101270004E68664512DC122E56D8DFE806F0350BB4
:101280004D49555555555555555555555555554532
:10129000510000BFD1F80C9046E000BF4FF6FF723E
:1012A000C1F2210296420FDC0022C1F211029642E5
:1012B0001AD00022C1F21202964215D00022C1F2C9
:1012C0002102964210D02FE00022C1F22202964263
:1012D0000AD00022C1F23102964205D00022C1F2AA
:1012E0003202964220D100BF8A684AB1012A14BF57
:1012F000C0F814B0C0F810B04FF0080914E000BFF7
:101300004FF0040910E000BFCA6802F104090BE0C5
:101310004FF0000908E000BFCA6802F1080903E0C5
:10132000CA6802F10C0900BF02462646B8F5807F64
:1013300024BF0432203E17680F25B54027EA050573
:1013400009FA06F635431560CA79D2067FF582AFF1
:1013500041F21803C4F202031A68AEF57E7642F039
:1013600001021A601A6802F001020192019A2AF041
:10137000030256F802B040F60002C4F201029042A5
:1013800008D040F60042C4F2010290427FF420AF40
:10139000012725E7002723E702B0BDE8F08F000012
:1013A0008068084018BF012070470000C26802EA48
:1013B0000103914341EA034101617047002A08BFDC
:1013C000090401617047000040F2EC20C2F2000005
:1013D00000687047002804BF01207047F0B581B055
:1013E000044690F83D0028B9002084F83C002046CF
:1013F00000F0E6FB242084F83D002068016821F01D
:1014000001010160016841F400410160016821F4BB
:101410000041016000F020FE636848F2A16CC0F258
:10142000010C40F60011C0F23D0163453CBF48F29B
:101430008041C0F21E01884202D2012001B0F0BDFD
:101440004DF68361C4F21B31A0FB01122168970C99
:10145000D1F804E04FF496762EF03F0545EA924528
:101460004D60774348F638160D6AC0F24106A7FB77
:10147000067625F03F07634538BF960C721C3A4349
:101480000A62CA6948F2A0664CF6FF77C0F201060C
:10149000B34222EA07020BD801385B00B0FBF3F03D
:1014A00001306FF31F30042898BF04201BE000BFF9
:1014B000A768013857B119277B43B0FBF3F001301F
:1014C0006FF31F3070B100F5804007E003EB43037A
:1014D000B0FBF3F001306FF31F3018B100F500409E
:1014E00001E000BF01201043C8610868D4E9072368
:1014F00020F0C000104318430860886848F2FF32AB
:1015000004F10C0790438CCF18431043A669886000
:10151000C86820F0FF0038433043C860086840F0D6
:101520000100086000202021206484F83D10206321
:1015300084F83E0001B0F0BD2DE9F04383B01E46B3
:10154000174689460446FFF73FFF94F83D102029CF
:1015500024D10546206800BF816989071AD5FFF7A5
:1015600033FF411B20681A29F6D381698907F3D517
:1015700000202021206384F83D1084F83E00216C77
:1015800041F02001216484F83C00022003B0BDE852
:10159000F08300BF94F83C10012903D1022003B06E
:1015A000BDE8F083012184F83C100168C90703D12C
:1015B000016841F001010160016840F2020821F474
:1015C00000610160212184F83D10102184F83E1053
:1015D0000021216467626685618DC0F20108218562
:1015E000A8F10211E162E16A0A9E11F5803F18BF7D
:1015F00001291DD1016841F48071016020464FF03E
:10160000011100223346009502F04AF950B12068DA
:101610000068C00544BF4FF400702064012003B08F
:10162000BDE8F0832069B0F5804F07D1FE2015E0BA
:101630000829DFD0216B1229DCD0DFE7062000EA81
:10164000D9102168F030086108F1060120463246C1
:101650002B4602F00BFA0028E0D1FF20216800EAB7
:10166000090008612046414632462B4602F0FEF949
:101670000028D3D10020029020684169029180693E
:101680000290029806E000BF204631462A4602F04A
:10169000A9F818BB208D68B3204631462A4602F0CF
:1016A00099FAD8B9606A2168024612F8013B0B61C9
:1016B0006262628D013A6285228D531E23854F69D5
:1016C0007F07E1D51B04DFD0437802300B616062F5
:1016D000608D01386085901E2085D5E7206C042838
:1016E0009CD12068016841F400710160012003B0C1
:1016F000BDE8F0832068016841F40071016020209A
:1017000084F83D00002084F83E0084F83C0003B0DB
:10171000BDE8F0832DE9F04F85B0044600209946DE
:1017200016460F460490FFF74FFE94F83D1020290F
:1017300027D10546206800BF816989071CD5FFF7BE
:1017400043FE411B20681A29F6D381698907F3D526
:1017500000202021206384F83D1084F83E00206C96
:1017600004F13C0A40F020002064022000218AF8A5
:10177000001005B0BDE8F08FA2461AF83C1F012901
:1017800004D1022005B0BDE8F08F00BF01228AF825
:1017900000200368DDE90F180E9ADB0703D1036808
:1017A00043F001030360036823F400630360222015
:1017B00084F83D00402084F83E00002020646262EE
:1017C0006185608D394620850020CFF6FF70E0628C
:1017D000204632464B46CDE9008501F015FF18B191
:1017E000012005B0BDE8F08F208D022826D0012809
:1017F0000ED0002838D10020039020684169039161
:10180000816903910399016841F40071016037E037
:101810002068016821F480610160EFF3108072B6E6
:101820000020039020684169039181690391039925
:10183000016841F40071016062B621E0206801682E
:1018400041F400610160EFF3108072B60020039054
:10185000206841690391816903910399016821F42A
:101860008061016062B60BE02068016841F480612C
:1018700001600021039141690391806903900398FD
:10188000208D002800F0CE80042740F21C094BF286
:10189000895BC0F20107C2F20009C1F2F84B2326AE
:1018A0000EE000BF10690870606A218D013060622F
:1018B000481E2085618D01396185010400F0B280E8
:1018C00080B203280CD802282CD001284AD1204607
:1018D00041462A4602F036F9002800F09F807FE753
:1018E000204641462A4602F02DF900287FF478AFC1
:1018F0002068616A00690870606A2268411C208D56
:10190000616201382085638D013B638553695B0704
:10191000D3D580B20328C5D1106820F48060106050
:10192000C0E700BF2046394600224346009501F03B
:10193000B7FF00287FF454AFEFF3108072B6206831
:10194000616A026842F40072026000690870606AAD
:10195000218D01306062481E2085608D01386085D0
:1019600062B65BE02046394600224346009501F00E
:1019700097FF00287FF434AF2068016821F480616C
:101980000160EFF3108072B62068616A0069087028
:10199000606A218D0130013960622185618D0139D4
:1019A0006185D9F80010C908A1FB0B12110A714317
:1019B0000491049901390491049900293ED02168C9
:1019C0004A6952071AD40499013904910499A9B3B8
:1019D00021684A69520711D4049901390491049984
:1019E00061B321684A69520708D404990139049106
:1019F000049919B321684A695207DAD50A6842F492
:101A000000720A6009690170606A218D01306062AC
:101A1000481E2085608D0138608562B62068616A45
:101A2000006940E7202084F83D00002084F83E0053
:101A300000218AF8001005B0BDE8F08F00202021B9
:101A4000206384F83D1084F83E00206C40F02000B4
:101A5000206462B6012000218AF8001005B0BDE8BC
:101A6000F08F00002DE9F04383B0994616460F46EB
:101A70000446FFF7A9FC94F83D10202924D105461F
:101A8000206800BF816989071AD5FFF79DFC411BBB
:101A900020681A29F6D381698907F3D5002020210F
:101AA000206384F83D1084F83E00216C41F0200151
:101AB000216484F83C00022003B0BDE8F08300BF3D
:101AC00094F83C10012903D1022003B0BDE8F08353
:101AD000012284F83C200368DDE90B180A9ADB0731
:101AE00003D1036843F001030360036823F4006338
:101AF0000360212084F83D00402084F83E0000204F
:101B0000206462626185608D394620850020CFF6B1
:101B1000FF70E062204632464B46CDE9008501F079
:101B2000FDFD18B1012003B0BDE8F083208D98B908
:101B3000204641462A4601F055FE88B3206C042811
:101B4000F0D12068016841F400710160012003B008
:101B5000BDE8F0830004EBD0204641462A4602F05F
:101B600039F80028EAD1616A2268084610F8013B7A
:101B70001361238D6062581E2085678D013F678544
:101B800057697F07E6D50704E4D048781061881CC0
:101B90006062981E2085618D01396185DAE700BF9A
:101BA0002068016841F400710160202084F83D0044
:101BB000002084F83E0084F83C0003B0BDE8F083C8
:101BC00010B586B0016845F60000C4F200008142FD
:101BD0004FF00001CDE90411CDE9021102D006B0A9
:101BE00010BD00BF41F21804C4F20204216800F5E0
:101BF000344041F008012160216801F008010191A1
:101C000001994FF440610291122103910321059142
:101C100002A9FFF7BDFA606840F480006060606868
:101C200000F480000190019806B010BD40F214004D
:101C300040F2EC21C2F20000C2F2000100780A6812
:101C4000104408607047000080B542F20000C4F202
:101C50000200016841F010010160032000F08CF8DF
:101C6000012000F005F800F027F8002080BD0000FA
:101C700070B540F21406C2F2000640F21C01327840
:101C8000C2F200014FF47A730968B3FBF2F2044622
:101C9000B1FBF2F1084600F003FE0F2C4FF00105F6
:101CA00008D838B94FF0FF3021460022002500F057
:101CB00037F87460284670BD82B041F21800C4F253
:101CC00002000168022241F001010160016801F097
:101CD000010101910199416841F0805141604068E2
:101CE00000F08050009000980420C4F201000168C8
:101CF00062F31A61016002B070470000002848BF1B
:101D0000704700F01F01012202FA01F11C2202EAD1
:101D1000D0004EF20012CEF2000281507047000057
:101D200010B54EF60C5CCEF2000CDCF80030C3F3BC
:101D3000022E8EF00704042C28BF0424BEF10303F6
:101D40004FF0FF3E0EFA04F438BF0023A143994040
:101D50000EFA03F39A43114300F00F0200F16043BF
:101D60000901043A03F564436244002848BF02F1C4
:101D70000C03197010BD00004EF60C51CEF200019C
:101D80000A684FF6FF031A4060F30A2242F08060AF
:101D900040F0FD70086070472DE9F04182B00446C4
:101DA000007841F21C06C007C4F202064AD030682F
:101DB0005FEAC00808D4306840F080503060306876
:101DC00000F080500190019847F20007C4F200072C
:101DD0003868C00512D4386840F480703860FFF766
:101DE000F3FA05463868C00508D4FFF7EDFA401B42
:101DF0006428F7D9032002B0BDE8F081706810F4C0
:101E0000407012D0616801F4407188420DD0706852
:101E100040F24042C4F24222012320F44071136098
:101E20000023C0071360716026D17068616820F4D8
:101E300040700843B8F1000F706003D4306820F0A0
:101E4000805030602068810707D556F8181CA268BA
:101E500021F44041114346F8181CC00607D556F836
:101E6000180CE16820F48000084346F8180C0020A4
:101E700002B0BDE8F08100BFFFF7A6FA054641F2C7
:101E8000883700BF70688007CFD4FFF79DFA401BEA
:101E9000B8424FF00300F5D9EAE70000002804BF7C
:101EA000012070472DE9F04381B042F20008C4F2EE
:101EB00002080446D8F800000D4600F007008842EA
:101EC0000CD2D8F8000020F007002843C8F8000022
:101ED000D8F8000000F00700A8426CD1206841F259
:101EE00004098107C4F2020917D5410705D5D9F8BD
:101EF000001041F4E061C9F80010010705D5D9F8D8
:101F0000001041F46051C9F80010D9F80010A2681F
:101F100021F0F0011143C9F80010C00742D1D8F8F0
:101F2000000000F00700A8420CD9D8F8000020F00B
:101F300007002843C8F80000D8F8000000F00700A8
:101F4000A84238D12068410707D5D9F80010E268C7
:101F500021F4E0611143C9F80010000708D5D9F851
:101F60000000216920F4605040EAC100C9F8000077
:101F7000D9F8002002F00C00082841F20020C0F23D
:101F80007A004DD146F6DA63C2F38341C0F600030E
:101F9000595CD20338D440F60010C0F23D004843EB
:101FA0003EE000BF606859F8041C022808D00128F0
:101FB00026D1890306D4012001B0BDE8F08300BF1B
:101FC0008901F8D5D9F8001021F003010843C9F8B8
:101FD0000000FFF7F9F9064641F28837D9F800000A
:101FE000616800F00C00B0EB810F98D0FFF7ECF9BE
:101FF000801BB842F2D9032001B0BDE8F08300BFD6
:102000008907D8D5DEE700BFD9F8002046F6D863A7
:10201000C2F34042C0F600039A5C4843B0FBF2F0C2
:10202000D9F8001046F6C062C1F30311C0F60002F1
:10203000515C40F21C0220FA01F140F21800C2F299
:1020400000000068C2F200021160FFF711FE0020DC
:1020500001B0BDE8F083000040F21C0041F2040131
:10206000C2F20000C4F202010068096846F6D062BC
:10207000C1F30221C0F60002515CC8407047000065
:1020800040F21C0041F20401C2F20000C4F202015D
:102090000068096846F6D062C1F3C221C0F60002AA
:1020A000515CC84070470000002804BF0120704701
:1020B0002DE9F04182B00446007841F20006C007E5
:1020C000C4F202060CD0706800F00C00042840F046
:1020D00081803068800303D56068002800F0468165
:1020E000207880071BD5706810F00C0F09D070683D
:1020F00000F00C00082840F087807068C00300F1F1
:1021000083803068800703D52069012840F02E8144
:102110003068616920F0F80040EAC1003060207842
:10212000000713D4207840072CD4E569002D00F077
:102130001881706800F00C00082840F0A780012D7D
:1021400040F00481012002B0BDE8F081A0690028C0
:1021500000F084800020C4F242200121C0F88014E5
:10216000FFF732F9054600BF706A800700F1B280C0
:10217000FFF72AF9401B0228F6D9032002B0BDE878
:10218000F08100BFF0695FEAC00808D4F06940F050
:102190008050F061F06900F080500090009847F2A4
:1021A0000007C4F200073868C00549D4386840F415
:1021B00080703860FFF708F9054600BF3868C00531
:1021C0003ED4FFF701F9401B6428F7D9032002B081
:1021D000BDE8F081706800F00C00082803D1706839
:1021E000C0033FF576AF61683068002900F00C81CC
:1021F000B1F5A02F00F00081B1F5803F40F01A81C9
:1022000040F480301CE100BF2069002840F200004B
:10221000C4F2422000F0888001210160FFF7D4F869
:10222000054600BF306880073FF572AFFFF7CCF876
:10223000401B0228F6D9032002B0BDE8F08100BFA0
:10224000E168306A002900F09D80052900F0928045
:10225000012940F0AF8040F00100B1E00020C4F25D
:1022600042200021C0F88014FFF7AEF8054600BFF9
:10227000706A80077FF556AFFFF7A6F8401B02286B
:10228000F6D9032002B0BDE8F08100BF0027C4F2F8
:10229000422700203866FFF797F8022D05460DD13A
:1022A0003068800140F1DE80FFF78EF8401B022885
:1022B0004FF00300F4D902B0BDE8F081306880012E
:1022C0004FD5FFF781F8401B02284FF00300F5D9E6
:1022D000F1E700BF40F21C00C2F20000006844F6C3
:1022E000D351C1F26201A0FB0101480A019000BF75
:1022F00000BF0198411E002801913FF413AF00BFB9
:102300000198411E002801913FF40CAF00BF0198D5
:10231000411E002801913FF405AF00BF0198411E06
:1023200000280191E4D1FDE600210160FFF74CF89F
:10233000054600BF306880077FF5F1AEFFF744F82F
:10234000401B02284FF00300F4D9B4E77068216AFB
:1023500000F480328A4209D1616A00F47010884228
:1023600004D1002002B0BDE8F08100BF012002B01E
:10237000BDE8F08140F004003062306A40F00100B6
:102380001EE000BF20F001003062306A20F004003F
:102390003062FFF719F8054641F28837306A800746
:1023A00020D5FFF711F8401BB8424FF00300F5D9D4
:1023B00081E700BF20F001003062306A20F00400A5
:1023C0003062FFF701F8054641F28837306A80072E
:1023D00008D4FEF7F9FF401BB842F7D9032002B03A
:1023E000BDE8F081B8F1000F3FF59FAEF06920F035
:1023F0008050F06199E600BF40F480203060306882
:1024000040F480301CE000BF20F480303060306841
:1024100020F480203060FEF7D7FF05463068800347
:102420007FF55EAEFEF7D0FF401B64284FF003003F
:10243000F4D940E720F480303060306820F4802008
:102440003060FEF7C1FF0546306880033FF548AEB7
:10245000FEF7BAFF401B6428F6D9032002B0BDE89E
:10246000F08100BF206AB0F5803F05D17168A26895
:1024700021F40031114371607168626A21F47411B2
:1024800011430843706001203866FEF79DFF044643
:10249000306880013FF565AFFEF796FF001B02280C
:1024A0004FF00300F4D906E770B528B1416A29B1AD
:1024B00000210161142106E0012070BD4168B1F5E1
:1024C000827F02D01C21002242500026866290F8B2
:1024D000511029B980F85060054600F039F82846B7
:1024E000022180F8511090E82E0002F482720C68EC
:1024F00003F4044324F040040C601A4405F4006320
:1025000005691A4405F0020345691A4405F0010300
:102510008569C4691A4405F400731A4404F0380349
:10252000046A1A4404F08003846A1A4304F40053D2
:102530001A430A60042202EA15424A60CA6922F478
:102540000062CA610121466580F85110304670BDB5
:1025500070B586B040F60004C4F20104006804F5CA
:102560002051002688420596CDE90366029601D0E7
:1025700006B070BD41F21800C4F20200016802AD5D
:1025800041F480510160016801F480510191019989
:10259000016841F0040101600068294600F0040070
:1025A00001900198A0200290022003900320059042
:1025B0002046FEF7EDFD4020CDE9020620462946E3
:1025C0000496FEF7E5FD06B070BD00002DE9F0436E
:1025D00083B01E4615460F460446FEF7F5FE94F8F6
:1025E00051108146012909D1002F4FF0010018BF79
:1025F000002D0FD103B0BDE8F08300BF6068B0F5D7
:10260000827F0DD104294FF00200F3D1A168002987
:10261000EAD0EFE7002EEDD094F85000012803D166
:10262000022003B0BDE8F083012084F8500094F844
:102630005100002104281CBF052084F85100616569
:10264000A563E687A6872763E6862068A6862164B9
:1026500061640168490603D4016841F040010160EA
:102660006168731EE268B1FA81F1B3FA83F3DDF8B1
:10267000288049095B09B2F5006F41EA030165D181
:1026800031B137F8021BC1602763E08E0138E08664
:10269000012518F1010032D102E000BFFEF794FEDF
:1026A000E08E18B9E08F002800F0B88020688168BB
:1026B00089070CD5E18E51B1012D08D1216B002580
:1026C00031F8022BC2602163E18E0139E186816815
:1026D000C907E3D0E18F0029E0D0C068A16B0125D4
:1026E00021F8020BA163E08F0138E087D6E700BF35
:1026F000FEF76AFEA0EB0900404580F0AF80E08E57
:1027000018B9E08F002800F0898020688168890767
:102710000CD5E18E51B1012D08D1216B002531F886
:10272000022BC2602163E18E0139E1868168C9070D
:10273000DED0E18F0029DBD0C068A16B012521F834
:10274000020BA163E08F0138E087D1E739B1397816
:102750000173206B01302063E08E0138E086012593
:1027600018F1010032D101E0FEF72EFEE08E10B923
:10277000E08F002852D02068816889070ED5E18E4D
:1027800061B1012D0AD1216B002509780173216BFC
:10279000206801312163E18E0139E1868168C90732
:1027A000E2D0E18F0029DFD0C068A16B012508705D
:1027B000A06B0130A063E08F0138E087D4E700BF51
:1027C000FEF702FEA0EB0900404547D2E08E08B9B3
:1027D000E08F18B32068816889070ED5E18E61B15A
:1027E000012D0AD1216B002509780173216B206826
:1027F00001312163E18E0139E1868168C907DFD0AB
:10280000E18F0029DCD0C068A16B01250870A06BA6
:102810000130A063E08F0138E087D1E72046022134
:1028200001224346CDF8009002F022FD40B9204637
:10283000802100224346CDF8009002F019FDB8B186
:10284000606D40F02000606520206065002084F805
:102850005000012003B0BDE8F08300BF012084F8E0
:102860005100002084F85000032003B0BDE8F0833D
:10287000A06838B9002002902068C1680291806881
:1028800002900298012084F85100002084F8500042
:10289000606D002818BF012003B0BDE8F083000080
:1028A000411E0020B0EB116F1CBF012070474EF29B
:1028B0001002CEF2000251604EF62351CEF200011A
:1028C000F0230B70072190601160704790F83C2056
:1028D000012A04BF02207047B0B501F108053CCDC4
:1028E000D1E900CE23F47C5322F470521A432EF423
:1028F000F0431A432CF4E0431A4324F4C0431A4330
:102900002A43C96922F480420368114359640021B3
:1029100080F83C100020B0BD90F83C20012A4FF018
:10292000020236D010B580F83D200268D2F804E0EB
:10293000D2F808C00C682EF07003234340F2FF74F5
:10294000C4F20004A24253600ADCB2F1804F13D0FB
:1029500040F20043C4F200039A420DD011E000BFE0
:1029600042F60043C4F201039A4205D040F6000348
:10297000C4F200039A4204D149682CF08003194341
:1029800091600121002280F83D1080F83C20BDE8D4
:102990001040104670470000002804BF0120704717
:1029A00010B590F83D1031B9002180F83C10044674
:1029B00000F070F82046022180F83D10016840F2D6
:1029C000FF740B68C4F2000442F6004CA142C4F24A
:1029D000010C15DCB1F1804F1AD040F20042C4F274
:1029E0000002914214D0A14218DCB1F1804F1DD0F9
:1029F00040F20042C4F20002914217D01AE000BF38
:102A0000614505D040F60002C4F200029142EAD1CD
:102A1000826823F070031343A142E6DD614505D0CF
:102A200040F60002C4F20002914203D1026923F48D
:102A300040731343846923F08002D0F804E0C36834
:102A4000224361450A60CB62C1F828E002D14269A5
:102A5000CCF8302001224A610B69DB0703D00B69F7
:102A600023F001030B6180F8462080F83E2080F8B7
:102A70003F2080F8402080F8412080F8422080F8F4
:102A8000432080F8442080F8452080F83D20002035
:102A900010BD0000006842F60041C4F20101884206
:102AA00018BF704781B041F21800C4F202000168FB
:102AB00041F400610160006800F40060009000983B
:102AC00001B0704790F83C20012A4FF002026CD010
:102AD00080B580F83D20D0F800C04FF67772DCF862
:102AE000083023EA0202CCF808200B684F2B29DCBF
:102AF0001F2B45DD202B46D0302B44D0402B40F0FF
:102B0000AF80D1F804E0C968DCF82030DCF8202080
:102B100022F00102CCF82020DCF8182022F0F0028C
:102B200042EA011123F00A0242EA0E02CCF8181020
:102B3000CCF82020DCF8081041F0470121F03001EA
:102B400028E000BF6F2B33DDB3F5005F74D0B3F521
:102B5000805F21D0702B40F08380D1E901E3C96808
:102B6000DCF8082043EA0E0322F47F4243EA012105
:102B70001143CCF80810DCF8081041F0770109E0A7
:102B80000BB1102B6CD1DCF8081021F07001194347
:102B900041F00701CCF808100022012180F83D1017
:102BA000002180F83C10BDE880401046704700BF0F
:102BB000502B21D0602B53D1D1F804E0C968DCF848
:102BC0002030DCF8202022F01002CCF82020DCF8A5
:102BD000182022F4704242EA013123F0A00242EAB6
:102BE0000E12CCF81810CCF82020DCF8081041F0B8
:102BF000670121F01001CDE7D1F804E0C968DCF8E5
:102C00002030DCF8202022F00102CCF82020DCF873
:102C1000182022F0F00242EA011123F00A0242EAEF
:102C20000E02CCF81810CCF82020DCF8081041F087
:102C3000570121F02001ADE7D1E901E3C968DCF8D3
:102C4000082043EA0E0322F47F4243EA01211143A4
:102C5000CCF80810DCF8081041F480419AE700BF76
:102C600001229AE780B586B0014640F60000C4F222
:102C70000100096800F5105291424FF00001CDE9C2
:102C80000411CDE9021101D006B080BD41F2180156
:102C9000C4F202010A6842F004020A60096801F005
:102CA0000401019101994FF4807102910221039175
:102CB000059102A9FEF76CFA06B080BD90F83C3091
:102CC000012B04BF022070474FEAB202032A00F230
:102CD000F1802DE9F043DFE802F003A53B7500BF6A
:102CE000036842F600461D6A1A6AC4F2010622F021
:102CF00001021A621A465C6852F818CFB3428E6815
:102D0000D1F800E025F0020545EA06050CD1CE68B1
:102D1000D1E9057824F4407425F00C0526F004066A
:102D20003C43354344EA08042CF0730747EA0E0796
:102D30005C609F614F6809695F631D629F6947F02E
:102D400008079F619F6927F004079F61A6E000BF05
:102D5000036842F600461D6A1A6AC4F2010622F4AC
:102D600080721A621A46D3F804C052F81CEFB342BC
:102D70008E680C6825F4007545EA06250FD1CE68EB
:102D8000D1E90598360240F2FF4725F44065BE437D
:102D900035432CF4405748EA090647EA061C2EF052
:102DA00073072743C3F804C0DF614F680969DF6315
:102DB0001D62DF6947F00807DF61DF6927F004075C
:102DC000DF616BE0036842F60047D3F820C01A6A5F
:102DD000C4F2010722F480521A621A465C6852F863
:102DE0001C5FD1F800E08E68BB4204D14F6924F427
:102DF000804444EA87142CF4005747EA063725F448
:102E0000E64646EA0E265C60DE614E6809691E648D
:102E10001F62DF6947F40067DF61DF6927F48067BD
:102E2000DF613AE0036842F600461D6A1A6AC4F29E
:102E3000010622F010021A621A46D3F804C052F8B2
:102E4000184FB3428E68D1F800E025F0200545EA1E
:102E500006150FD1CE68D1E905986FF0400725F02F
:102E6000C00507EA061635432CF4406748EA090610
:102E700047EA860C24F4E64444EA0E27C3F804C06B
:102E80009F614F6809699F631D629F6947F40067EE
:102E90009F619F6927F480679F6109021368194346
:102EA00011600021BDE8F043002280F83C20084674
:102EB000704700BF0121002280F83C20084670477F
:102EC000002804BF0120704710B590F83D1031B9BB
:102ED000002180F83C10044600F070F820460221E2
:102EE00080F83D10016840F2FF740B68C4F20004E2
:102EF00042F6004CA142C4F2010C15DCB1F1804F46
:102F00001AD040F20042C4F20002914214D0A14211
:102F100018DCB1F1804F1DD040F20042C4F2000233
:102F2000914217D01AE000BF614505D040F600027B
:102F3000C4F200029142EAD1826823F07003134385
:102F4000A142E6DD614505D040F60002C4F2000270
:102F5000914203D1026923F440731343846923F03F
:102F60008002D0F804E0C368224361450A60CB6266
:102F7000C1F828E002D14269CCF8302001224A6130
:102F80000B69DB0703D00B6923F001030B6180F8A9
:102F9000462080F83E2080F83F2080F8402080F8CE
:102FA000412080F8422080F8432080F8442080F8B7
:102FB000452080F83D20002010BD00007047000033
:102FC000C1B1042908D0082914BF41224022825CE3
:102FD000012A05D016E000BF3F22825C012A11D1F0
:102FE0000222082910D0042914BF80F8412080F85B
:102FF0003F200BE090F83E20012A03D1022280F806
:103000003E2003E00120704780F84020006801F076
:103010001F010122036A8A4023EA02010162036A56
:1030200042F64441C4F201011A43A1F1440398421B
:1030300002620FD040F2FF71C4F20001884213DC3B
:10304000B0F1804F1CD040F20041C4F20001884230
:1030500016D01CE00A6842F400420A6040F2FF7198
:10306000C4F200018842EBDD42F60041C4F20101E6
:10307000884205D040F60001C4F20001884206D122
:10308000816801F00701062904BF0020704701682C
:1030900041F001010160002070470000002804BFDA
:1030A0000120704710B5044690F8410028B900206F
:1030B00084F84000204600F063F8242084F84100A2
:1030C0002068D4E90212C36823F40053C360036983
:1030D00023F440531A430261D4E904231143C26824
:1030E000194341F20C639A431143C1604169A269DB
:1030F00021F44071114343F60002C4F201029042F0
:10310000416103D0FEF7A8FF02E000BFFEF7B8FF61
:10311000D4E90023192148439900B0FBF1F048F2AB
:103120001F5CC5F2EB1CA0FB0C314FF69C734909E8
:10313000C0F6FF7301FB0300322303EB0010A0FB7A
:103140000C03F02000EA531000EB0110C3F343110D
:10315000084490601069202120F49040106150696B
:1031600020F02A005061D06840F40050D060002068
:10317000606484F8411084F84210606310BD000060
:1031800070B586B0006844F20041C4F20001884284
:103190004FF00001CDE90411CDE9021120D043F632
:1031A0000001C4F20101884248D141F21800C4F282
:1031B000020001684FF4806641F4804101600168BB
:1031C00001F4804101910199016841F0040101601D
:1031D000006800F00400019001984FF4007017E0BF
:1031E00041F21800C4F202004168082641F400319F
:1031F0004160416801F4003101910199016841F099
:1032000004010160006800F00400019001980420AE
:103210000290022040F6000403900320C4F201044F
:1032200002AD059020462946FDF7B2FF0020CDE90A
:103230000300204629460296FDF7AAFF06B070BD9E
:103240002DE9F04381B0044690F84200202809D1CE
:10325000884600294FF0010018BF002A06D101B0AE
:10326000BDE8F083022001B0BDE8F08300202221F8
:103270001D46606484F8421020631646FEF7A4F8E9
:10328000A685E685A1680746B1F5805F02D1206971
:10329000002851D046464FF00008E08D00284FD05E
:1032A00005F101090CE000BF406800266FF35F20C4
:1032B00028F8020BE08D0138E085E08D00283FD032
:1032C00020680168890617D4B9F1000F22D0002DBB
:1032D00000F0CA80FEF778F8C01BA84200F2BC805C
:1032E0002068C168490744BF01685FEA01712FD4B3
:1032F00001688906EED500BF002ED5D0A168B1F5D2
:10330000805F15D009B9216991B1406800F07F0054
:103310000FE000BF01688906EED4016889065CBF32
:1033200001685FEA8161E7D401688906F2D5E3E7C5
:10333000406806F8010BBDE70026E08D0028AFD1FC
:103340000020202184F8421001B0BDE8F08300BFC6
:10335000002100910168009140680090009800BF32
:10336000206850E8030F216820F4907041E80302C0
:10337000BAB3206850E8030F216820F4907041E848
:10338000030272B3206850E8030F216820F49070A4
:1033900041E803022AB3206850E8030F216820F4B3
:1033A000907041E80302002ADAD11AE0206850E860
:1033B000050F216820F0010041E80502DAB120681C
:1033C00050E8050F216820F0010041E8050292B1A4
:1033D000206850E8050F216820F0010041E805024F
:1033E0004AB1206850E8050F216820F0010041E84B
:1033F0000502002ADAD1206B012824D1206850E888
:10340000030F216820F0100041E80302DAB12068C0
:1034100050E8030F216820F0100041E8030292B148
:10342000206850E8030F216820F0100041E80302F3
:103430004AB1206850E8030F216820F0100041E8ED
:103440000302002ADAD1202084F84200002008215B
:103450002063616484F840000320202184F8421036
:1034600001B0BDE8F08300BFFDF7AEFFF4E7000058
:103470002DE9F04381B0044690F84100202809D19D
:1034800000294FF0010018BF002A07D101B0BDE8A4
:10349000F08300BF022001B0BDE8F083002060642B
:1034A00021201D460E4684F841001746FDF78CFF8B
:1034B000A784E784A1688146B1F5805F02D12069C5
:1034C00000285DD037460020E28C2168002A5DD0BC
:1034D0006A1C24D0002D4AD0804600BF0868000630
:1034E00008D4FDF771FFA0EB0900A8427AD8216843
:1034F000C868F3E717B117F8010B04E038F8020BBE
:1035000000276FF35F204860E08C0138E084E08C96
:103510000028E3D13AE000BF0A68120609D40A681D
:10352000120606D40A6812065CBF0A685FEA0262E5
:10353000F2D51FB117F8012B05E000BF30F8022BC0
:1035400000276FF35F224A60E28C013AE284E28C4A
:10355000002AE4D11AE000BF30F8022B00276FF3F5
:103560005F224A60E28C013AE284E28C72B10A681E
:10357000120635D5002FEFD017F8012BF1E700BF69
:1035800000273046E28C2168002AA1D10868400655
:103590001ED42DB3681C14D1086840062AD40868CC
:1035A000400627D40868400624D4086840064FF037
:1035B0000000F1D50DE000BF2068C168006840063A
:1035C00018D4FDF701FFA0EB0900A842F4D909E0E7
:1035D0000020202184F8411001B0BDE8F08300BF35
:1035E000FDF7F2FE0320202184F8411001B0BDE870
:1035F000F08300BF0020202184F8411001B0BDE815
:10360000F0830000FEE700002DE9F04782B0044699
:1036100000689A460B9D0A9E0368914643F48062B7
:10362000026002680F4642F48071016020464FF04C
:10363000011100223346009500F032F950B12068A4
:103640000068C00544BF4FF400702064032002B03E
:10365000BDE8F08740F202082068C0F2010807F0D8
:10366000FE0707612046414632462B4600F0FEF930
:1036700020B1012002B0BDE8F08700BF002001901A
:1036800020682A464169019180693146019001987C
:10369000204600F09FFAB0B92068BAF1010F09D0B6
:1036A0004FEA19210161204631462A4600F092FA7C
:1036B00048B920685FFA89F10161204631462A46FF
:1036C00000F088FA60B1206C0428D2D1206801682B
:1036D00041F400710160012002B0BDE8F08700BF35
:1036E000206800220168334641F480710160204661
:1036F0004FF00111009500F0D3F800289FD147F05A
:10370000010C27682046414632462B46C7F810C0B8
:1037100002B0BDE8F04700F0A9B900002DE9F04380
:1037200083B0044600680F4601680A9D0B9E41F471
:10373000807199469046016020464FF001110022A9
:103740002B46009600F0ACF850B120680068C00528
:1037500044BF4FF400702064032003B0BDE8F08341
:10376000206807F0FE0101610221C0F2010120463C
:103770002A46334600F07AF920B1012003B0BDE8B3
:10378000F08300BF00200290206832464169029118
:103790008069294602900298204600F01BFA58B131
:1037A000206C0428E9D12068016841F400710160AF
:1037B000012003B0BDE8F0832068B9F1010F0AD001
:1037C0004FEA1821016120462946324600F002FAEC
:1037D0000028E5D120685FFA88F10161002003B07C
:1037E000BDE8F08370B50368044653F8140F400732
:1037F00011D40E46481C29D086BB00BF186840056E
:1038000027D4FDF7E1FD236853F8140F400737D59F
:1038100018684007F2D5002070BD00BF1868400747
:10382000F9D41868400514D418684007F3D4186810
:1038300040050ED418684007EDD41868400508D438
:10384000186840074FF0000048BF70BD1868400579
:10385000E4D56FF480601860042012E0154603E0A0
:1038600053F8140F4007D6D418684005F1D4FDF77B
:10387000ABFD401B2368B042F2D958694007EFD432
:10388000202000212022216384F83D2084F83E106E
:10389000226C10432064012084F83C1070BD0000AD
:1038A0002DE9F041054600681E46144601F47F02EA
:1038B00001338FB242D0DDF81880B2F5803F40F07E
:1038C000878040693840C01BB0FA80F04009A042B0
:1038D00040F0C8804EB924E040693840C01BB0FABF
:1038E00080F04009A04240F0BD80FDF76DFDA0EBE7
:1038F00008012868B142EFD941693940C91BB1FAC2
:1039000081F14909A142E7D19BE000BF40693840FD
:10391000C01BB0FA80F04009A0424FF0000040F018
:10392000A280FDF751FD286841693940C91BB1FAF1
:1039300081F14909A142E9D183E000BFB2F5803F9E
:1039400024D100BF41693940C91BB1FA81F149094D
:10395000A14240F0878041693940C91BB1FA81F129
:103960004909A14240F07E8041693940C91BB1FA42
:1039700081F14909A14275D141693940C91BB1FAA8
:1039800081F14909A142DDD06CE000BF8169394075
:10399000C91BB1FA81F14909A14263D1816939405A
:1039A000C91BB1FA81F14909A1425BD18169394052
:1039B000C91BB1FA81F14909A14253D1816939404A
:1039C000C91BB1FA81F14909A142DFD04AE000BF29
:1039D00080693840C01BB0FA80F04009A04241D154
:1039E00046B923E080693840C01BB0FA80F0400936
:1039F000A04237D1FDF7E8FCA0EB08012868B142EE
:103A0000F0D981693940C91BB1FA81F14909A14254
:103A1000E8D116E080693840C01BB0FA80F0400958
:103A2000A0424FF0000018BFBDE8F081FDF7CCFCCC
:103A3000286881693940C91BB1FA81F14909A1425D
:103A4000E8D100202021286385F83D1085F83E004C
:103A5000296C41F02001296485F83C000120BDE873
:103A6000F08100BF0020BDE8F0810000F0B581B01A
:103A7000044600681D4643698FB203EA0701B94254
:103A800002D1002001B0F0BD4169164601323CD0A0
:103A9000490512D47EB300BFFDF796FC411B206898
:103AA000B14203D941693940B9422BD1416939400A
:103AB000B942E6D041694905EED5016841F400718B
:103AC00001606FF4806141610420002120222163A4
:103AD00084F83D2084F83E10226C1043206484F862
:103AE0003C10012001B0F0BD41693940B942C8D055
:103AF00041694905E1D4FDF767FC20684169394017
:103B0000B942F1D02020E0E741694905D5D44169A7
:103B10003940B942B5D041694905CED441693940EF
:103B2000B942AED041694905C7D441693940B9426B
:103B3000A7D041694905C0D441693940B942E3D1B0
:103B40009FE7000070B504460068154650F8143F22
:103B50005A063DD40E4629B926E000BF50F8141F7E
:103B6000490635D40168C90621D4FDF72DFC411B57
:103B70002068B142F2D941694906EFD400202021E2
:103B8000206384F83D1084F83E00206C40F0200053
:103B900018E000BFFDF718FC206850F8141F490614
:103BA000ECD50168490613D40168C906F2D56FF057
:103BB0001001016000202021206384F83D1084F86A
:103BC0003E00206C2064002084F83C00012070BD81
:103BD000002070BD70B50368044653F8140F00064A
:103BE00011D40E46481C29D086BB00BF186840057A
:103BF00027D4FDF7E9FB236853F8140F000637D5E7
:103C000018680006F2D5002070BD00BF18680006D5
:103C1000F9D41868400514D418680006F3D418685D
:103C200040050ED418680006EDD41868400508D485
:103C3000186800064FF0000048BF70BD18684005C6
:103C4000E4D56FF480601860042012E0154603E0AC
:103C500053F8140F0006D6D418684005F1D4FDF7C8
:103C6000B3FB401B2368B042F2D958690006EFD479
:103C7000202000212022216384F83D2084F83E107A
:103C8000226C10432064012084F83C1070BD0000B9
:103C90002DE9F04182B0044648F68C00C0F60C00D5
:103CA000019040F268104FF47A78C2F2000001AA45
:103CB0004E210423CDF80080FDF73EFC0A20FDF7DD
:103CC000C9F8207830B3671E40F26814C2F20004CD
:103CD00001AD00BF20F00F01000101F10D0209311B
:103CE0008DF8051000F10D0109308DF804208DF8D4
:103CF00006108DF8070020464E212A460423CDF8F1
:103D00000080FDF719FC0A20FDF7A4F8B878013708
:103D10000028DFD10520FDF79DF84CF6CC0040F2DD
:103D20006814C0F60C00C2F2000401AD01902046F8
:103D30004E212A460423CDF80080FDF7FDFB0A2022
:103D4000FDF788F82020012713A600BF20F00F01FF
:103D5000000101F10D0209318DF8051000F10D018E
:103D600009308DF804208DF806108DF807002046E4
:103D70004E212A460423CDF80080FDF7DDFB0A2002
:103D8000FDF768F8F05D0137122FDFD10520FDF750
:103D900061F802B0BDE8F081202020202020202002
:103DA0002020202020202020200000000178002951
:103DB00008BF7047F0B583B040F26814461E4FF458
:103DC0007A77C2F2000402AD21F00F00090100F180
:103DD0000D0209308DF8090001F10D008DF80A007F
:103DE00001F109008DF808208DF80B0020464E21C6
:103DF0002A4604230097FDF79FFB0A20FDF72AF8C7
:103E0000B17801360029DFD103B0BDE8F04070473A
:103E100080B582B000F0F001000101F10C02083120
:103E20008DF8051000F10C0108308DF8070040F204
:103E300068108DF804208DF806104FF47A7CC2F2D9
:103E4000000001AA4E210423CDF800C0FDF774FB49
:103E50000A20FCF7FFFF02B080BD0000B0B582B0C1
:103E600040F60C0040F26814C3F63C00C2F20004B5
:103E700001904FF47A7501AA20464E210423009543
:103E8000FDF75AFB0A20FCF7E5FF3220FCF7E2FFC2
:103E900040F60C00C2F62C00019001AA20464E21EB
:103EA00004230095FDF748FB0A20FCF7D3FF3220DE
:103EB000FCF7D0FF40F60C00C6F66C00019001AA9A
:103EC00020464E2104230095FDF736FB0A20FCF71F
:103ED000C1FF3220FCF7BEFF40F60C00CCF6CC0050
:103EE000019001AA20464E2104230095FDF724FBF2
:103EF0000A20FCF7AFFF3220FCF7ACFF42F62C00A3
:103F0000C8F68C00019001AA20464E21042300959A
:103F1000FDF712FB0A20FCF79DFF3220FCF79AFF09
:103F200048F68C00C0F60C00019001AA20464E21F4
:103F300004230095FDF700FB0A20FCF78BFF3220DD
:103F4000FCF788FF02B0B0BD2DE9F04184B040F627
:103F50000005C4F2010504462846102100224FF056
:103F60000008FDF72BFA40F2BC161A20C2F2000638
:103F70008DF80D0064270DF10D0103AA30460123D1
:103F80000097FEF723FB0DF10F010DF10E023046F5
:103F900001238DF80F800097FEF718FB28461021AB
:103FA0000122FDF70BFA42F29300208002AF0C20B1
:103FB000214602222346009700F016FA10B104B001
:103FC000BDE8F08120786178A278E37848405040DD
:103FD00021795840401A18BF0120400004B0BDE8C4
:103FE000F0810000F0B587B08DF8080010688DF8FA
:103FF00009101968CDF80A009088049102A9ADF85B
:104000000E0005AE0E200C220B46009600F0ECF9D7
:1040100020B10224204607B0F0BD00BF40F60005E5
:10402000C4F201052846102100220024FDF7C6F93C
:1040300040F2BC169020C2F200068DF81B006427E7
:104040000DF11B010DF11A02304601230097FEF716
:10405000BDFA0DF11B010DF11A02304601238DF856
:104060001B400097FEF7B2FA9DF81A60284610210F
:104070000122FDF7A3F9300758BF0224204607B0FC
:10408000F0BD000010B584B0502002ACADF80800BF
:10409000A21C20460221FCF7C9FA0DF10C0C0C20E1
:1040A000214604222346CDF800C000F09DF904B05B
:1040B00010BD0000F0B583B040F60004C4F2010466
:1040C000204610210122FDF779F904F580600121D5
:1040D0000122FDF773F92046102100220027FDF789
:1040E0006DF940F2BC150220C2F200058DF80B00FC
:1040F00064260DF10B010DF10A02284601230096FA
:10410000FEF764FA0F208DF80B000DF10B010DF195
:104110000A02284601230096FEF758FA204610218D
:104120000122FDF74BF9204610210022FDF746F948
:1041300054208DF80B000DF10B010DF10A022846F9
:1041400001230096FEF742FA8D208DF80B000DF149
:104150000B010DF10A02284601230096FEF736FAFC
:10416000204610210122FDF729F9204610210022C6
:10417000FDF724F956208DF80B000DF10B010DF120
:104180000A02284601230096FEF720FA3E208DF809
:104190000B000DF10B010DF10A02284601230096D8
:1041A000FEF714FA204610210122FDF707F92046F8
:1041B00010210022FDF702F95A208DF80B000DF1B5
:1041C0000B010DF10A02284601230096FEF7FEF9C5
:1041D0001E208DF80B000DF10B010DF10A0228468F
:1041E00001230096FEF7F2F9204610210122FDF787
:1041F000E5F8204610210022FDF7E0F858208DF860
:104200000B000DF10B010DF10A0228460123009667
:10421000FEF7DCF90DF10B010DF10A02284601232E
:104220008DF80B700096FEF7D1F92046102101227F
:10423000FDF7C4F8204610210022FDF7BFF82A2020
:104240008DF80B000DF10B010DF10A022846012338
:104250000096FEF7BBF940208DF80B000DF10B0125
:104260000DF10A02284601230096FEF7AFF9204619
:1042700010210122FDF7A2F8204610210022FDF7AF
:104280009DF822208DF80B000DF10B010DF10A02B3
:10429000284601230096FEF799F93D208DF80B0082
:1042A0000DF10B010DF10A02284601230096FEF7DD
:1042B0008DF9204610210122FDF780F820461021BB
:1042C0000022FDF77BF8A8208DF80B000DF10B0103
:1042D0000DF10A02284601230096FEF777F90DF149
:1042E0000B010DF10A02284601238DF80B70009690
:1042F000FEF76CF9204610210122FDF75FF814202B
:10430000032101F047F803B0F0BD00002DE9F041B2
:1043100084B040F60008C4F201080C460546404649
:1043200010210022FDF74AF840F2BC171A20C2F211
:1043300000078DF80D0064260DF10D0103AA384623
:1043400001230096FEF742F907208DF80F000DF1CA
:104350000F010DF10E02384601230096FEF736F9E3
:10436000404610210122FDF729F802AF0C2021461A
:10437000012223462570009700F036F80299102993
:10438000014618BF0221002818BF0221084604B0C8
:10439000BDE8F08110B586B047F29301ADF80B107F
:1043A000016800790DF10B04CDF80D108DF81100A6
:1043B000E21D20460721FCF739F90DF1140C0C2001
:1043C000214609222346CDF800C000F00DF80599DA
:1043D0009DF80B200023182918BF1A46002818BF83
:1043E0001A46D0B206B010BD2DE9F04F87B017467F
:1043F0000C2888460293049006D00E2808D111207C
:104400000590122007E000BF31200590772002E0E0
:1044100001200590002040F60005C4F2010503903C
:1044200000F180042846102100224FF00009FCF71B
:10443000C5FF40F2BC1A0420C2F2000A8DF81B002E
:1044400064260DF11B010DF11A025046012300965E
:10445000FEF7BCF80DF11B010DF11A0250460123C5
:104460008DF81B400096FEF7B1F828461021012276
:10447000FCF7A4FF04208021FCF7C2F90A20802168
:1044800000F088FF284610210022FCF797FF022049
:104490008DF81B000DF11B010DF11A02504601238E
:1044A0000096FEF793F80DF11B010DF11A0250462C
:1044B00001238DF81B900096FEF788F828461021FE
:1044C0000122FCF77BFF67B340F2BC19A8F1010A97
:1044D000C2F200090DF11B080DF11A041AF801BF10
:1044E0002846102100226426FCF768FF12208DF870
:1044F0001B0048464146224601230096FEF766F817
:10450000642648464146224601238DF81BB000969A
:10451000FEF75CF8284610210122FCF74FFF013F0F
:10452000DCD1284610210022FCF748FF40F2BC14E1
:104530000220C2F200048DF81B000DF11B010DF1E9
:104540001A02204601230096FEF740F8049F0DF161
:104550001B010DF11A02204601238DF81B700096F5
:10456000FEF734F8284610210122FCF727FF0C2F14
:1045700003D10D20802100F00DFF4FF6300740F2EF
:10458000BC1BCFF6FF774FF088084FF0640AC2F2E9
:10459000000B0DF11B060DF11A0400BF2846102177
:1045A0000022FCF70BFF58463146224601238DF8C6
:1045B0001B80CDF800A0FEF709F800208DF81B0045
:1045C0005846314622460123CDF800A0FDF7FEFFF4
:1045D0009DF81A90284610210122FCF7EFFE0137C2
:1045E00080F0D080059810EA090FD7D00D208021E7
:1045F000FCF706F92846102100220027FCF7DEFE12
:1046000040F2BC148C20C2F200048DF81B0064261A
:104610000DF11B010DF11A02204601230096FDF752
:10462000D5FF0DF11B010DF11A02204601238DF873
:104630001B700096FDF7CAFF9DF81A40284610210E
:104640000122FCF7BBFE14F01B0F40F09F80039883
:10465000049900EA09000C2900F0010040F097805D
:10466000059028461021002210270026FCF7A6FE00
:1046700040F2BC199420C2F200090DF11A0B8DF81A
:104680001B0064240DF11B0148465A460123009487
:104690004FF0010AFDF79AFF0DF11B010DF11A020F
:1046A000484601238DF81B600094FDF78FFF9DF8AD
:1046B0001A80284610210122FCF780FE284610218E
:1046C0000022FCF77BFE98208DF81B000DF11B01EA
:1046D0000DF11A02484601230094FDF777FF0DF112
:1046E0001B010DF11A02484601238DF81B6000944E
:1046F000FDF76CFF9DF81A60284610210122FCF797
:104700005DFE16F0070040EAC8001099A0F108000D
:1047100008BF4FEAC8000860B8F1010F98BFD04643
:10472000B8F1100F28BFB84602984FF0920A461E03
:10473000284610210022FCF741FE0DF11B074846D8
:1047400039465A4601238DF81BA00094FDF73EFF21
:1047500000208DF81B00484639465A460123009434
:10476000FDF734FF9DF81A70284610210122FCF74E
:1047700025FEB8F1010806F8017FD9D1059807B0E8
:10478000BDE8F08F0D208021FCF73AF8022007B039
:10479000BDE8F08FF0B587B00D46A02101AC8DF8D3
:1047A00004108DF80500A21C204602210226FBF70A
:1047B0003DFF06AF0C202146042223460097FFF759
:1047C00013FE38BB0698042824D19DF8040000F09D
:1047D0000F000A2822D1EA6828686968049201AAB1
:1047E000AB680BC204F1100220461021FBF71EFF3C
:1047F0000C202146122223460097FFF7F5FD68B9E9
:10480000069804280AD19DF8040000F00F000A2839
:1048100004D10026304607B0F0BD00BF0226304666
:1048200007B0F0BDFEE70000FEE7000070470000A3
:104830002DE9F04387B04BF2B230CBF2B450059083
:1048400046F68010CBF2B01004904AF2A450C0F2A9
:10485000FF7003904AF2A010CAF2A23002904CF608
:10486000CC0040F26814C0F60C00C2F2000406ADA1
:1048700006904FF47A7820464E212A460423CDF83C
:104880000080FCF759FE0A20FCF7E4FA20200127FB
:1048900057A600BF20F00F01000101F10D02093100
:1048A0008DF8191000F10D0109308DF818208DF8E0
:1048B0001A108DF81B0020464E212A460423CDF8FD
:1048C0000080FCF739FE0A20FCF7C4FAF05D0137DE
:1048D0001A2FDFD16420FCF7BDFA48F68C0040F2B5
:1048E0006819C0F60C00C2F2000906AD06904FF43C
:1048F0007A7848464E212A460423CDF80080FCF7FA
:104900001BFE0A20FCF7A6FA47F276070021412099
:10491000C0F600074E1C7C1820F00F01000101F1C9
:104920000D0209318DF8191000F10D0109308DF8D3
:1049300018208DF81A108DF81B0048464E212A4683
:104940000423CDF80080FCF7F7FD0A20FCF782FA7B
:104950006078102E3146DDD106A95220FFF7D6FC33
:1049600010B107B0BDE8F08340F28005C2F2000547
:1049700005F13D042046FFF7E7FA0028F1D1204673
:10498000FFF708FD40F20006C2F2000606F1080239
:10499000602007212346FFF725FB28B102F018FA13
:1049A00007B0BDE8F08300BF02A90720FFF7F2FEC1
:1049B0000028D6D101200021C5E9090080206971B5
:1049C000A96385F83C10FFF723FA10A0FFF7EEF972
:1049D000052070600120322100F03EFD08200821F2
:1049E000FBF70EFFFFF74EFB07B0BDE8F08300BFFB
:1049F00020202020202020202020202020202020B7
:104A00002020202020202020200000004E686170FF
:104A10002049442E2E2E202020202020202020201F
:104A2000000000002DE9F04F89B048F68C0040F2FC
:104A30006814C0F60C00C2F2000405AD05904FF4F6
:104A40007A7820464E212A460423CDF80080FCF7D0
:104A500073FD0A20FCF7FEF9502001270FF21046E3
:104A600020F00F01000101F10D0209318DF8151040
:104A700000F10D0109308DF814208DF816108DF815
:104A8000170020464E212A460423CDF80080FCF76B
:104A900053FD0A20FCF7DEF9F05D0137152FDFD159
:104AA00040F2F004C2F2000440F2800004F1440835
:104AB000C2F2000000F15E02F3A14046FBF7A4FB46
:104AC0004CF6CC00C0F60C00059040F268104FF494
:104AD0007A75C2F2000005AA4E2104230095FCF766
:104AE0002BFD0A20FCF7B6F994F8440028B340F2F5
:104AF0006816C2F2000605AF444600BF20F00F0161
:104B0000000101F10D0209318DF8151000F10D01C0
:104B100009308DF814208DF816108DF817003046E6
:104B20004E213A4604230095FCF706FD0A20FCF7C7
:104B300091F914F8010F0028E0D10DF11E01522067
:104B4000FFF7E4FB10B109B0BDE8F08F40F2800040
:104B5000C2F2000000F13D063046FFF7F5F90028EB
:104B6000F1D13046FFF716FC40F20007C2F2000711
:104B700007F10E02602007213346FFF733FA0028C1
:104B800042D0C6A0FFF784F840F60044C4F2010406
:104B900020464FF4004101220125FCF70FFC502074
:104BA000FCF758F920464FF400410022FCF706FCC0
:104BB0005020FCF74FF920464FF400410122FCF74A
:104BC000FDFB5020FCF746F920464FF4004100223F
:104BD000FCF7F4FB5020FCF73DF940F28004C2F2F0
:104BE000000420780130C1B205292070C0F0328164
:104BF0003878657004289CBF0130387000207860D8
:104C0000FCF7E2FB206129E140F28009C2F20009D1
:104C100099F8060040F2F00B0028C2F2000B05AD37
:104C2000CDF8108000F01A8140F26818C2F2000836
:104C30004FF47A7608AC4FF0000A24E0049CA3A15C
:104C400020465A46FBF7E0FA2046FBF79DFB82B26E
:104C500040F2A420C2F2000021466423FEF708FCC3
:104C600040F28009C2F2000905AD4FF4FA60FCF78A
:104C7000F1F84FF47A7608AC99F806000AF1010AC7
:104C8000824580F0EB80102000EBCA0008210191E2
:104C900082B24046A1210223C82700950297FCF763
:104CA00039FD1420FCF7D6F8D9F83D000599884263
:104CB000E2D19DF818209DF819309DF81A509DF802
:104CC0001B7004987BA1CDE90057FBF79DFA48F6CD
:104CD0008C00C0F60C00089040464E21224604236A
:104CE0000096FCF729FC0A20FCF7B4F89BF8440076
:104CF000F8B1049D20F00F01000101F10D0209310E
:104D00008DF8211000F10D0109308DF820208DF86B
:104D100022108DF8230040464E212246042300969F
:104D2000FCF70AFC0A20FCF795F815F8010F00289B
:104D3000E0D101F08FFE40F200010120C2F200013B
:104D400008709DF814109DF815209DF816309DF8F8
:104D5000175047F287090809C0F60009140902F044
:104D60000F021E0903F00F032F0919F800C019F8EC
:104D7000022019F8066040F2F00019F8033019F823
:104D8000077001F00F01C2F2000005F00F0519F8DD
:104D900001E0C27006714371877119F805500698D9
:104DA00040F2F00119F80440C2F20001CD718860B0
:104DB0000EEB0C0121441144314419448BF800C01E
:104DC0008BF801E08BF8024040F2F00B3944C2F25C
:104DD000000B294408449BF809109BF80A209BF813
:104DE0000B300844104418448BF80C000A20ABF830
:104DF0000D0040F60040C4F201000221FCF7D0FA99
:104E000001283FF41BAF47F21A0047F29801C0F6A1
:104E10000000C0F600014FF47A7201F02FFF00206D
:104E20008BF80C00584601F051FE40F28009022830
:104E3000C2F2000905AD7FF418AF47F21A0047F23D
:104E40009801C0F60000C0F600014FF47A7201F03C
:104E500015FF0AE74FF4FA60FBF7FCFF0820082172
:104E6000FBF7CEFCFFF70EF909B0BDE8F08F00BFED
:104E700050617373776F7264207C2052666964207E
:104E8000202020200000000050573A2573202020C9
:104E90002020202020202020202000004361726458
:104EA000206E6F742076616C69642121202020209F
:104EB0002000000057656C636F6D653A20256325FF
:104EC0006325632563202020200000004461746175
:104ED0003A25730A000000002DE9F0418AB046F639
:104EE0008011CFF6FF714FF0FF3007916FF07841DE
:104EF0000890CDE9050148F68C0040F26815C0F62F
:104F00000C00C2F200050DF10D08CDF80D004FF4B4
:104F10007A7628464E21424604230096FCF70CFB85
:104F20000A20FBF797FF44200127CCA420F00F01B3
:104F3000000101F10D0209318DF80E1000F10D0193
:104F400009308DF80D208DF80F108DF810002846CF
:104F50004E21424604230096FCF7EEFA0A20FBF7A6
:104F600079FFE05D0137142FE0D10DF126015220C9
:104F7000FFF7CCF910B10AB0BDE8F08140F280062D
:104F8000C2F2000606F13D052846FEF7DDFF0028C7
:104F9000F1D12846FFF7FEF940F20000C2F200000E
:104FA00000F10E02602007212B46FFF71BF828B105
:104FB00001F00EFF0AB0BDE8F08100BF05A907208F
:104FC000FFF7E8FB10B101F003FF3DE140F268108C
:104FD000C8250427C2F20000A12110220223CDE936
:104FE00000870295FCF796FB1420FBF733FFD6F8F9
:104FF0003D00DDF80D10884208D10020FBF75EFC73
:1050000047F25F00C0F60000FEF742FE40F2681073
:10501000C2F20000A12118220223CDE90175CDF8CA
:105020000080FCF777FB1420FBF714FFD6F83D0057
:10503000DDF80D10884208D10120FBF73FFC47F254
:105040005F00C0F60000FEF723FE40F26810C8259E
:105050000427C2F20000A12120220223CDE900870B
:105060000295FCF757FB1420FBF7F4FED6F83D0041
:10507000DDF80D10884208D10220FBF71FFC47F233
:105080005F00C0F60000FEF703FE40F26810C2F2B7
:105090000000A12128220223CDE90175CDF800806E
:1050A000FCF738FB1420FBF7D5FED6F83D00DDF801
:1050B0000D10884208D10320FBF700FC47F25F0087
:1050C000C0F60000FEF7E4FD40F26810C825042792
:1050D000C2F20000A12130220223CDE9008702950F
:1050E000FCF718FB1420FBF7B5FED6F83D00DDF801
:1050F0000D10884208D10420FBF7E0FB47F25F0067
:10510000C0F60000FEF7C4FD40F26810C2F20000D5
:10511000A12138220223CDE90175CDF80080FCF7EA
:10512000F9FA1420FBF796FED6F83D00DDF80D10D5
:10513000884208D10520FBF7C1FB47F25F00C0F6AB
:105140000000FEF7A5FD40F26810C8250427C2F252
:105150000000A12140220223CDE900870295FCF73F
:10516000D9FA1420FBF776FED6F83D00DDF80D10D5
:10517000884208D10620FBF7A1FB47F25F00C0F68A
:105180000000FEF785FD40F26810C2F20000A12188
:1051900048220223CDE90175CDF80080FCF7BAFA68
:1051A0001420FBF757FED6F83D00DDF80D108842BD
:1051B00008D10720FBF782FB47F25F00C0F6000032
:1051C000FEF766FD40F26810C8250427C2F2000011
:1051D000A12150220223CDE900870295FCF79AFA1B
:1051E0001420FBF737FED6F83D00DDF80D1088429D
:1051F00008D10820FBF762FB47F25F00C0F6000011
:10520000FEF746FD40F26810C2F20000A1215822CC
:105210000223CDE900870295FCF77CFA1420FBF706
:1052200019FED6F83D00DDF80D10884208D109209E
:10523000FBF744FB47F25F00C0F60000FEF728FDD5
:105240000420322100F008F908200821FBF7D8FAE1
:10525000FEF718FF0AB0BDE8F08100BF44656C6539
:10526000746520636172642E2E2E2E202020200073
:105270002DE9F04381B0089C984615460E468146BC
:10528000FCF7A2F8201A00EB0804FCF79DF840F2A6
:105290001C01C2F200010968C1F3CB3161430091E6
:1052A000D9F800108A683240921BB2FA82F2520991
:1052B000AA423DD0074618F1010031D0FCF784F82E
:1052C000C01BA04238D2009800990028A1F101012A
:1052D0000091D9F80010896808BF044601EA060069
:1052E000801BB0FA80F04009A842E7D120E000BF5F
:1052F00088683040801BB0FA80F04009A84217D07F
:1053000088683040801BB0FA80F04009A8420FD076
:1053100088683040801BB0FA80F04009A84207D06E
:1053200088683040801BB0FA80F04009A842DFD185
:10533000002001B0BDE8F083D9E900014268B1F571
:10534000827F22F0E00242600BD1D9F80810B1F55B
:10535000004F02D0B1F5806F03D1016821F0400108
:105360000160D9F82810B1F5005F07D1016821F478
:1053700000510160016841F400510160012089F889
:105380005100002089F85000032001B0BDE8F083EF
:10539000704700002DE9F04784B040F60008C4F2E1
:1053A00001088A4606464046102100224FF00009B7
:1053B000FCF704F8802040F2BC1540EA4600C2F237
:1053C00000058DF8090064240DF1090102AA2846A0
:1053D00001230094FDF7FAF80DF10B010DF10A021B
:1053E000284601238DF80B900094FDF7EFF89DF807
:1053F0000A70404610210122FBF7E0FF40461021D1
:10540000002247EA0A07FBF7D9FF7E2000EA4600A0
:105410008DF80D000DF10D0103AA2846012300941B
:10542000FDF7D4F80DF10F010DF10E02284601230E
:105430008DF80F700094FDF7C9F840461021012245
:10544000FBF7BCFF04B0BDE8F0870000FCF7EEBB43
:1054500070470000FEE700000128B8BF704770B534
:1054600040F6004604460D46C4F2010630464FF4AD
:1054700000410122FBF7A2FF2846FBF7EBFC304678
:105480004FF400410022FBF799FF2846FBF7E2FCAE
:10549000013CEBD1BDE87040704700002DE9F041C0
:1054A00084B040F28008C2F2000898F80460044614
:1054B000B6FA86F047092046FAF766FF54254FF4FE
:1054C0007A7180B2002E08BF4A25CDE9010140F271
:1054D0006810FA00C2F20000A12102230094FCF738
:1054E000C1FA3220FBF7B6FC2068012148F805001C
:1054F0000020C8F81400C4F80B00A06060602060B1
:1055000040F20000C2F20000416004B0BDE8F0814A
:105510002DE9F04395B040F20009C2F2000999F874
:105520000110012900F08A82D9F80420002A6BD0EA
:1055300040F28006C2F20006736A032A08BF002BFD
:1055400068D0052A40F09880002B00F09580432910
:1055500040F02281707930B101387071C0B23044AE
:10556000002180F8381040F2F005C2F2000505F184
:10557000440446F6EA6106F13802C0F6000120460E
:10558000FAF742FE4CF6CC00C0F60C00CDF847000E
:1055900040F268104FF47A77C2F200000DF1470232
:1055A0004E2104230097FBF7C7FF0A20FBF752FCAC
:1055B00095F84400002800F03E8240F26815C2F2DF
:1055C00000050DF1470600BF20F00F01000101F1B9
:1055D0000D0209318DF8481000F10D0109308DF8E8
:1055E00047208DF849108DF84A0028464E21324652
:1055F00004230097FBF7A0FF0A20FBF72BFC14F80D
:10560000010F0028E0D116E2012015B0BDE8F043FB
:10561000FBF720BCF06A002800F0DC80A1F1230039
:10562000202800F20882DFE810F0210006020602BE
:10563000060206020602060206020602060206022A
:10564000060206020602060206020602060206021A
:10565000060206020602060206020602060206020A
:10566000060206020602810179018B010120C9F8B8
:1056700004000020F062DEE1042A0DD1432940F04D
:10568000D78071690129C0F2D98101390022716185
:10569000425415B0BDE8F0837269432900F00081DF
:1056A000232940F0C581511E0C2900F27D81002183
:1056B000815406F154050DF1470201270FF2904184
:1056C000044610462A4689F80170FAF79DFD0FF24C
:1056D00088410DF13A002A46FAF796FD0FF2804113
:1056E0000DF12D002A46FAF78FFD0FF27C4108A834
:1056F0002A46FAF789FD06F14A012046A046FAF744
:1057000089FE002800F05C8140462946FAF782FEB7
:10571000002800F055810DF12D014046FAF77AFE80
:10572000002800F0CD8108A94046FAF773FE002852
:1057300000F0CC810DF13A014046FAF76BFE0028EB
:1057400000F0D0810DF147014046FAF763FE0028D2
:1057500000F0D28102203221FFF77EFE0FF21040CE
:10576000FEF796FA4FF47A70FBF774FB307801304D
:10577000C1B2052930704046C0F0C98199F80000D7
:105780000121042871709CBF013089F80000FBF7EB
:105790001BFE30610020B7E17079232960D0032817
:1057A0005ED8421C727106F13802115440F2F000CA
:1057B000C2F2000000F1440446F6EA61C0F60001BE
:1057C0002046FAF721FDC020FEF722FB2046FEF717
:1057D000EDFA30E1642006F10801029040F2681011
:1057E00001250091C2F20000A1210F2202230195A0
:1057F000FBF790FF307A00285AD00020F071C820C3
:105800000821CDE9011040F2681006F14204C2F20D
:105810000000A121102202230094FBF77BFFF17905
:10582000204601F071FAF56215B0BDE8F08300BFC3
:10583000232904D0A1F13102082A00F2FF80337934
:105840007269002B00F0F080232902D0072A40F370
:10585000EF80232940F0F280082A80F22181EDE0D8
:10586000232940F0E8800021042886F83C1040F00D
:10587000A180B06A002800F09D8006F13801FBF796
:10588000B9F8002800F016810020C6E909007071FF
:10589000B06386F83C000220C9F80400CBE000BFEA
:1058A000012AC0F2C880511E002271614254C2E038
:1058B000A3A0FEF7EDF940F60044C4F2010420462F
:1058C0004FF400410122FBF779FD3220FBF7C2FAC9
:1058D00020464FF400410022FBF770FD3220FBF719
:1058E000B9FA20464FF400410122FBF767FD322050
:1058F000FBF7B0FA20464FF400410022FBF75EFDB3
:105900003220FBF7A7FA4FF47A70FBF7A3FA89F875
:105910000150C9F8045015B0BDE8F083317AF07930
:105920000139814240F38780013004E0F07900289A
:1059300000F081800138F07106F142042BE000BFD5
:10594000F079FAF7BBFF04203221FFF785FD8020B4
:10595000FEF75EFA73A0FEF729FA4FF47A70FBF7B0
:1059600079FA642006F10801029040F268100124DF
:105970000091C2F20000A1210F2202230194FBF743
:10598000C9FE317A002947D0F07906F142048842F5
:1059900024BF481EF071C0B22146FBF711F8F1791F
:1059A000204601F0B1F946E0002A04BF0121C9F800
:1059B0000410ACE07171B16386F83C103BE000BFAD
:1059C00047F24B00C0F60000FEF762F901F042F822
:1059D00040F60040C4F20100022189F80070FBF794
:1059E000DFFC01282ED140F2F000C2F2000000F1ED
:1059F00044056FA128464822FAF706FC2846FAF724
:105A0000C3FC82B240F2A420C2F200002946642303
:105A1000FDF72EFD3BE000BF0020C9F80440F06216
:105A200015B0BDE8F08300BF232935D0052A33DC4B
:105A3000531C73618154012089F8010015B0BDE841
:105A4000F08300BF47F21A0047F29801C0F6000049
:105A5000C0F600014FF47A7201F010F94FF04630B1
:105A60000690CDE9040000208DF81C0004A801F088
:105A70002DF802280BD147F21A0047F29801C0F620
:105A80000000C0F600014FF47A7201F0F7F84FF40D
:105A90007A70FBF7DFF939E02329CFD1062ACDDB75
:105AA00000218154012189F8011015B0BDE8F043AF
:105AB000FFF7F4BC00207071B06386F83C00BAE7D1
:105AC000012089F8000002201EE000BF44F20120FE
:105AD000A9F800000320C9F8040006F15E00FFF7F2
